:020000000329D2
:0E000600213083120313FD00FD0B07280800B4
:100014000F3083120313FC004730FD00FD0B102842
:0A002400FC0B10280000000008008B
:06002E00000000000800C4
:1000340083120313B21B2028881221288816321B2E
:100044002528081226280816B21A2A2888112B28CF
:100054008815321A2F280811302808152C1834282E
:10006400081435280810881417208810B2193C2861
:1000740088123D2888163219412808124228081689
:10008400B218462888114728881532184B280811B9
:100094004C2808152C1850280814512808108814C6
:1000A400172088102C1C58280A20592803200800DF
:0E00B400831203132B088A002A08820008001A
:1000C200831203132C103108B2001A202C140800DA
:1000D2008316031388100810081188110812881259
:1000E20083128810081088120812881108110A2039
:1000F2000A200A20881508158814172088100A205B
:100102008814172088100A208814172088100A20C3
:1001120008118814172088100A20881417208810C4
:10012200881188168814172088100A20881208154A
:1001320088141720881008118814172088100A20A4
:1001420088141720881008158814172088100A2090
:1001520008118814172088108816081688150815A3
:0C0162008814172088100A202C140800B4
:10016E00C928803083120313AD00DC28C030AD00E7
:10017E00DC289430AD00DC28D430AD00DC28803093
:10018E00AD00DC28831203132D08013A0319B82899
:10019E002D08023A0319BD282D08033A0319C02869
:1001AE002D08043A0319C328C6282E03F0002D0883
:1001BE00F0077008AD007008B2001A202C10B001C4
:1001CE0030082F07840000080319F52830082F0780
:1001DE0084000008B1006120B00AE7282C14080042
:1001EE005A208A110A128000840AAA0A0319AB0A3D
:0801FE00F003031DF7280800BF
:10020600423083120313A0006930A1006530A200BA
:100216006E30A3007630A4006530A5006E30A600CF
:100226007530A7006530A800A90169200130B20029
:100236001A200C30B2001A200130AD000130AE0099
:0A0246002030AF00B7202629272939
:02400E004A2F37
:00000001FF
