:020000000129D4
:10000600103083120313FD00FD0B072800000800C3
:10001600083083120313FC002330FD00FD0B11286A
:06002600FC0B112808008C
:04002C0000000800C8
:1000300083120313B01B1E2888121F288816301B3A
:100040002328081224280816B01A282888112928DD
:100050008815301A2D2808112E2808152A1832283C
:10006000081433280810881416208810B0193A286C
:1000700088123B28881630193F2808124028081695
:10008000B0184428881145288815301849280811C7
:100090004A2808152A184E2808144F2808108814D2
:1000A000162088102A1C56280B20572803200800E9
:0E00B0008312031329088A0028088200080022
:1000BE00831203132A102F08B00018202A140800E8
:1000CE00831603138810081008118811081288125D
:1000DE0083128810081088120812881108110B203C
:1000EE000B200B20881508158814162088100B205D
:1000FE008814162088100B208814162088100B20C8
:10010E0008118814162088100B20881416208810C9
:10011E00881188168814162088100B20881208154E
:10012E0088141620881008118814162088100B20A9
:10013E0088141620881008158814162088100B2095
:10014E0008118814162088108816081688150815A8
:0C015E008814162088100B202A140800BA
:10016A00C728803083120313AB00DA28C030AB00F3
:10017A00DA289430AB00DA28D430AB00DA288030A1
:10018A00AB00DA28831203132B08013A0319B628A5
:10019A002B08023A0319BB282B08033A0319BE2875
:1001AA002B08043A0319C128C4282C03F0002B0891
:1001BA00F0077008AB007008B00018202A10AE01D2
:1001CA002E082D07840000080319F3282E082D078E
:1001DA0084000008AF005F20AE0AE5282A14080050
:1001EA0058208A110A128000840AA80A0319A90A47
:0801FA00F003031DF5280800C5
:100202004C3083120313A0006330A1006430A200BB
:100212003430A3006230A4006930A5007430A60017
:10022200A70167200130B00018200C30B000182060
:100232000130AB000630AC002030AD00B5202029E3
:02400E004A2F37
:00000001FF
