:02000000772C5B
:10000800FF00030E83018316DC000A08DB008A0167
:1000180070088312A1008B1C172803308316D9009F
:100028000030DA008B100B1D2D2883160130CF020B
:10003800031CD00300305006031D242800304F064F
:10004800031D2C28B730CF00D001831287178B12DD
:100058000B110B1C41288312861E38280130831689
:10006800D9000030DA008B168312061B40280230B4
:100078008316D9000030DA000B1083122108F00033
:1000880083165B088A005C0E8300FF0E7F0E090052
:060098000000000008005A
:0E009E00213083120313FD00FD0B53280800D0
:1000AC000F3083120313FC004730FD00FD0B5C285E
:0A00BC00FC0B5C28000000000800A7
:1000C60083120317901B6A28031388136C280313E3
:1000D60088170317101B72280313081374280313B9
:1000E60008170317901A7A28031388127C2803131B
:1000F60088160317101A822803130812842803137C
:100106000816831655188A28831208158C28831218
:10011600081188154C208811031790199528031388
:100126008813972803138817031710199D2803139C
:1001360008139F280313081703179018A5280313FD
:100146008812A7280313881603171018AD2803135F
:100156000812AF280313081683165518B5288312FC
:100166000815B7288312081188154C2088118316A4
:0C017600551CBF285620C0284F20080050
:0E018200F201F101F001F801F3010030080074
:100190007B15FB1FD2280130F300F201F101F001C1
:0801A000FA0DF20CFF3008001B
:0801A800FA1FF21300300800F9
:1001B00083120313F801F9011030FC00710DF80DE2
:1001C000F90D7408F8027508031C750FF90203187D
:1001D000F0287408F80775080318750FF90703105D
:0A01E000F00DF10DFC0BDE28080005
:1001EA008316031355106F088312031790006320B8
:0601FA00831655140800F5
:1002000083160313ED0105306D0203180E296D08E6
:100210006C07840020308000ED0A03296D086C070C
:1002200084008001ED036D086C07EE000A30F400D5
:10023000F5016A08F0006B08F100D8207808F0009A
:100240007908F1003030F00783166E0884007008DA
:1002500080000A30F400F5016A08F0006B08F10034
:10026000D82070088316EA007108EB000030710690
:10027000031D3C2900307006031D3F294129ED0371
:040280001329080036
:100284005429803083160313EA006729C030EA003A
:1002940067299430EA006729D430EA00672980305E
:1002A400EA006729831603136A08013A03194329EC
:1002B4006A08023A031948296A08033A03194B29C0
:1002C4006A08043A03194E2951296B03F0006A089D
:1002D400F0077008EA007008831203179000632087
:1002E40083165510ED016D086C078400000803198E
:1002F40083296D086C0784000008EF00F520ED0ADF
:06030400752955140800E4
:10030A00FB14FB1F8F29FF30F300F200F100F0000D
:08031A00FA0DF20CFF3008009F
:0E0322008316031352088A0051088200080057
:100330007B14FB1FA329F201FA1FFF30F200F1002A
:0A034000F000FA0DF20CFF30080087
:10034A000E3083120313FD00FD0BA92900000800DB
:10035A00A0017208031DC2297108F2007008F10099
:10036A00F001A0157208031DC2297108F200F101FB
:10037A00A011201672080319D0292008F302031DC0
:10038A00031CD4290310F21BD829F00DF10DF20D2C
:10039A00F30BC829D4290130FC00C120DB29023023
:0E03AA00FC00C820DB290430FC00D420080031
:1003B80083120313FB0173080319192A7208FA0040
:1003C800F2178E30F302F31F1C2AF309F30A0830E0
:1003D8007302031CFF29F300F10D7208F100F2010A
:1003E80008307302031CFF29F300F10DF1017308B3
:1003F800031D0310072A73080319072A0310F20CB8
:10040800F10CF30B022A7B1B711C112A031C112A05
:10041800F10A0319F20AF21B282AFA1F2B2AF209F9
:10042800F109F10A0319F20A2B2AF201F1012B2A28
:100438007B14FB1F2E2AF201FA1F2E2AFF30F2002E
:10044800F100FA0DF20C2E2A0130FC00302A00309F
:10045800FC00302AFF30FC00FC080319342A9821DC
:0A0468007108F0007208F1000800AE
:10047200831603136108831203178D0083168C13EE
:0A0482000C1483120C08F0000800AF
:10048C0083160313E601E7016108E8006208E9003E
:10049C0080306206F00080307002031D572A003055
:1004AC0061020318652A0130E6000030E70061089C
:1004BC00003CE8006208031C013EE901E9026808FF
:1004CC00EA006908EB006308EC0000210630E40048
:1004DC000030E5006508003C031D762A6408003CEA
:1004EC000318912A64086307F20001306402F000DB
:1004FC000030031C013E6502F100700863078400A4
:10050C000008F00072088400700880000130E402DA
:10051C00031CE503702A6308840020308000660801
:10052C0067040319AF2AE401E5016408630784003A
:10053C000008203A031DA62AE40A0319E50A9B2A9F
:10054C000130E402031CE5036408630784002D30CA
:04055C008000080013
:100560008312031387178615013003179000632049
:1005700001308316EA000130EB004030EC004221EC
:100580003D30FB00E130FC003F30FD00FD0BC62A92
:0E059000FC0BC62AFB0BC62A00000000080068
:10059E00831603178C1CD52A0000CF2A031361087B
:1005AE00831203178D008316031362088312031739
:1005BE008C0083168C130C150B08F0008B13553022
:1005CE008D00AA308D008C14F01BEF2A8B13F02AAD
:0605DE008B170C11080050
:1005E40083120313FB017308031D77080319492BB6
:1005F40072087606FA007708F3077E30031C062B90
:10060400F30203184C2B092BF302031C4F2B720823
:10061400F8007108FC007008FD00F817F6170310C5
:10062400F201F101F0011830A0007D1C232B7408A5
:10063400F00775080318750FF10776080318760F8D
:10064400F207F20CF10CF00CF80CFC0CFD0C03108E
:10065400A00B172BF21B332BF80DF00DF10DF20D3F
:10066400F3037B1B701C452BF81F452BF00A031961
:10067400F10A0319F20A031D452BF20CF10CF00CDC
:10068400F30A03194C2BFA1FF2130030512B0130DB
:10069400C120512B02308521512B0430C820000089
:0206A40008004C
:1006A6008312031387150716013003179000632082
:1006B60001308316EA000130EB002230EC004221C3
:1006C6003330FB00BB30FC00DF30FD00FD0B692B37
:0E06D600FC0B692BFB0B692B000000000800D9
:1006E400831203139F01C0309F046C09F00070084B
:1006F40083169F051F179F176108F000F00D7010F7
:10070400F00D7010F00D7010700883129F041F1408
:10071400A5211F151F1D902B00008C2B1F101E08D8
:10072400F100F00183161E08F0040030F104080003
:1007340083160313881108110812881208138813EA
:10074400831288110811881308138812081256207E
:10075400562056208816081688154C2088115620D5
:1007640088154C208811562088154C208811562055
:10077400081288154C208811562088154C208811A1
:100784008812881788154C2088115620881308165B
:1007940088154C208811081288154C208811562081
:1007A40088154C208811081688154C20881156206D
:1007B400081288154C2088118817081788160816FF
:0E07C40088154C208811562083165514080005
:1007D200FF3083160313D600FF30D700FF30D80056
:1007E200FF3083129F01C0309F046C09F000700833
:0E07F20083169F051F179F1783121F14080000
:100800000130831203179000632001308316EA0041
:100810000130EB005F30EC0042210230EA00013091
:10082000EB005130EC004221E101E2018030620630
:10083000F00080307002031D1F2C0330610203188A
:10084000452C831287170630FB001330FC00AD30B7
:10085000FD00FD0B292CFC0B292CFB0B292C000087
:10086000000087130630FB001330FC00AD30FD00A4
:10087000FD0B382CFC0B382CFB0B382C0000000037
:100880008316E10A0319E20A162C83128614153026
:10089000FB004B30FC00BE30FD00FD0B4D2CFC0B73
:0A08A0004D2CFB0B4D2C000008004E
:1008AA0091218A110A128000840AD10A0319D20AF4
:0808BA00F003031D552C08009A
:1008C200831203137008F8007108F000F101F201BD
:1008D200F301FB01FC019630F300FA017008F1000C
:0C08E2007808F000F801F201AD210800D8
:1008EE002E26613083160313860087019A2301306A
:1008FE0083120317900063200C30031790006320BF
:10090E0001308316EA000130EB003530EC00422155
:10091E000230EA000130EB002C30EC004221E923DA
:10092E008B170B16831601138B158112811101146F
:10093E008114011583128101861186108711071209
:10094E0006118713871207178316E101722361249C
:10095E00B630F400F330F5007D30F6007D30F70050
:10096E00F222DC2170088316DF007108E0000130EE
:10097E00E10072236124B630F400F330F5007D30CF
:10098E00F6007D30F700F222DC2170088316DD00C0
:10099E007108DE0000305A06031DD72C01305906AF
:1009AE00031DE92CB0228312ED0A0319EE0A023060
:1009BE008316E10083126D088316E200CF22031323
:1009CE00D901DA0100305A06031DEF2C0230590608
:1009DE00031DF42C5323D901DA0100305A06031DEE
:1009EE00FA2C03305906031D002D00248316D9015D
:1009FE00DA0180306006F00080307002031D092D90
:100A0E0014305F020318342D8312871786150130B8
:100A1E0003179000632001308316EA000130EB00CB
:100A2E00C030EC0042218312ED0A0319EE0A0230A7
:100A3E008316E10083126D088316E200CF221F3069
:100A4E00FB007130FC001E30FD00FD0B2C2DFC0B4D
:100A5E002C2DFB0B2C2D0000842D803003135E06F5
:100A6E00F00080307002031D3E2D46305D020318EB
:100A7E00672D831287160130031790006320023012
:100A8E008316EA000130EB00B430EC0042218312F1
:100A9E00ED0A0319EE0A02308316E10083126D0887
:100AAE008316E200CF222930FB009630FC007F3007
:100ABE00FD00FD0B602DFC0B602DFB0B602D842DBE
:100ACE0083120313861186108711071206118713DE
:100ADE008712071701300317900063200130831629
:100AEE00EA000130EB00A930EC0042210230EA00AE
:100AFE000130EB00A030EC00422103138312051DE0
:100B0E00A92D02308316E1003922700883160313D3
:100B1E00D300D4015308E1005408E20083126F0899
:100B2E008316E300462201308312031790006320E0
:100B3E0001308316EA000130EB0083126F08831632
:080B4E00EC004221AB2CAA2DA2
:100C5C00223084004A3083120313F000B030831624
:100C6C00D1000530D2005524A03084000930831205
:100C7C00F00020308316D1000630D20055246C30A1
:100C8C00840001308312F00003308316D100003051
:100C9C00D2005524A930840026308312F000FA309B
:100CAC008316D1000530D20055246D3084000230FB
:100CBC008312F0002B308316D1000630D20055245D
:100CCC00CF30840002308312F00029308316D1001B
:080CDC000630D2005524080087
:020006000F34B5
:100B60004D346F346434653420346E3475346934F4
:040B700074340034A5
:100B74006D346F34643465344A346F34753472348C
:020B840000343B
:100B860065347434613474344E346F3472346D3475
:060B960061346C340034F0
:100B9C004E346934763465346134753420346434BD
:100BAC0027346534613475342034623461347334E1
:020BBC00003403
:100BBE006434653420346E346F3475347234723468
:0C0BCE00693474347534723465340034BA
:100BDA004434693473347434723469346234753425
:0A0BEA00743469346F346E34003443
:100BF40065347434613474344E346F3472346D3407
:060C040061346C34003481
:100C0A007134753461346C34693474347934203411
:080C1A006C346F3477340034B0
:100C2200543465346D34703420344334723469344E
:0E0C320074346934633461346C34213400341A
:100C40006D346F34643465344A346F3475347234BF
:020C500000346E
:040C5200B73400347F
:040C56000034003432
:02400E004A2F37
:00000001FF
